{
  "contractName": "HinataMarketplace",
  "abi": [
    {
      "inputs": [],
      "stateMutability": "nonpayable",
      "type": "constructor"
    },
    {
      "anonymous": false,
      "inputs": [
        {
          "indexed": true,
          "internalType": "address",
          "name": "account",
          "type": "address"
        },
        {
          "indexed": true,
          "internalType": "address",
          "name": "operator",
          "type": "address"
        },
        {
          "indexed": false,
          "internalType": "bool",
          "name": "approved",
          "type": "bool"
        }
      ],
      "name": "ApprovalForAll",
      "type": "event"
    },
    {
      "anonymous": false,
      "inputs": [
        {
          "indexed": true,
          "internalType": "address",
          "name": "previousOwner",
          "type": "address"
        },
        {
          "indexed": true,
          "internalType": "address",
          "name": "newOwner",
          "type": "address"
        }
      ],
      "name": "OwnershipTransferred",
      "type": "event"
    },
    {
      "anonymous": false,
      "inputs": [
        {
          "indexed": true,
          "internalType": "address",
          "name": "operator",
          "type": "address"
        },
        {
          "indexed": true,
          "internalType": "address",
          "name": "from",
          "type": "address"
        },
        {
          "indexed": true,
          "internalType": "address",
          "name": "to",
          "type": "address"
        },
        {
          "indexed": false,
          "internalType": "uint256[]",
          "name": "ids",
          "type": "uint256[]"
        },
        {
          "indexed": false,
          "internalType": "uint256[]",
          "name": "values",
          "type": "uint256[]"
        }
      ],
      "name": "TransferBatch",
      "type": "event"
    },
    {
      "anonymous": false,
      "inputs": [
        {
          "indexed": true,
          "internalType": "address",
          "name": "operator",
          "type": "address"
        },
        {
          "indexed": true,
          "internalType": "address",
          "name": "from",
          "type": "address"
        },
        {
          "indexed": true,
          "internalType": "address",
          "name": "to",
          "type": "address"
        },
        {
          "indexed": false,
          "internalType": "uint256",
          "name": "id",
          "type": "uint256"
        },
        {
          "indexed": false,
          "internalType": "uint256",
          "name": "value",
          "type": "uint256"
        }
      ],
      "name": "TransferSingle",
      "type": "event"
    },
    {
      "anonymous": false,
      "inputs": [
        {
          "indexed": false,
          "internalType": "string",
          "name": "value",
          "type": "string"
        },
        {
          "indexed": true,
          "internalType": "uint256",
          "name": "id",
          "type": "uint256"
        }
      ],
      "name": "URI",
      "type": "event"
    },
    {
      "inputs": [
        {
          "internalType": "address",
          "name": "account",
          "type": "address"
        },
        {
          "internalType": "uint256",
          "name": "id",
          "type": "uint256"
        }
      ],
      "name": "balanceOf",
      "outputs": [
        {
          "internalType": "uint256",
          "name": "",
          "type": "uint256"
        }
      ],
      "stateMutability": "view",
      "type": "function"
    },
    {
      "inputs": [
        {
          "internalType": "address[]",
          "name": "accounts",
          "type": "address[]"
        },
        {
          "internalType": "uint256[]",
          "name": "ids",
          "type": "uint256[]"
        }
      ],
      "name": "balanceOfBatch",
      "outputs": [
        {
          "internalType": "uint256[]",
          "name": "",
          "type": "uint256[]"
        }
      ],
      "stateMutability": "view",
      "type": "function"
    },
    {
      "inputs": [
        {
          "internalType": "address",
          "name": "account",
          "type": "address"
        },
        {
          "internalType": "address",
          "name": "operator",
          "type": "address"
        }
      ],
      "name": "isApprovedForAll",
      "outputs": [
        {
          "internalType": "bool",
          "name": "",
          "type": "bool"
        }
      ],
      "stateMutability": "view",
      "type": "function"
    },
    {
      "inputs": [],
      "name": "owner",
      "outputs": [
        {
          "internalType": "address",
          "name": "",
          "type": "address"
        }
      ],
      "stateMutability": "view",
      "type": "function"
    },
    {
      "inputs": [],
      "name": "renounceOwnership",
      "outputs": [],
      "stateMutability": "nonpayable",
      "type": "function"
    },
    {
      "inputs": [
        {
          "internalType": "address",
          "name": "from",
          "type": "address"
        },
        {
          "internalType": "address",
          "name": "to",
          "type": "address"
        },
        {
          "internalType": "uint256[]",
          "name": "ids",
          "type": "uint256[]"
        },
        {
          "internalType": "uint256[]",
          "name": "amounts",
          "type": "uint256[]"
        },
        {
          "internalType": "bytes",
          "name": "data",
          "type": "bytes"
        }
      ],
      "name": "safeBatchTransferFrom",
      "outputs": [],
      "stateMutability": "nonpayable",
      "type": "function"
    },
    {
      "inputs": [
        {
          "internalType": "address",
          "name": "from",
          "type": "address"
        },
        {
          "internalType": "address",
          "name": "to",
          "type": "address"
        },
        {
          "internalType": "uint256",
          "name": "id",
          "type": "uint256"
        },
        {
          "internalType": "uint256",
          "name": "amount",
          "type": "uint256"
        },
        {
          "internalType": "bytes",
          "name": "data",
          "type": "bytes"
        }
      ],
      "name": "safeTransferFrom",
      "outputs": [],
      "stateMutability": "nonpayable",
      "type": "function"
    },
    {
      "inputs": [
        {
          "internalType": "address",
          "name": "operator",
          "type": "address"
        },
        {
          "internalType": "bool",
          "name": "approved",
          "type": "bool"
        }
      ],
      "name": "setApprovalForAll",
      "outputs": [],
      "stateMutability": "nonpayable",
      "type": "function"
    },
    {
      "inputs": [
        {
          "internalType": "bytes4",
          "name": "interfaceId",
          "type": "bytes4"
        }
      ],
      "name": "supportsInterface",
      "outputs": [
        {
          "internalType": "bool",
          "name": "",
          "type": "bool"
        }
      ],
      "stateMutability": "view",
      "type": "function"
    },
    {
      "inputs": [
        {
          "internalType": "address",
          "name": "newOwner",
          "type": "address"
        }
      ],
      "name": "transferOwnership",
      "outputs": [],
      "stateMutability": "nonpayable",
      "type": "function"
    },
    {
      "inputs": [
        {
          "internalType": "uint256",
          "name": "",
          "type": "uint256"
        }
      ],
      "name": "uri",
      "outputs": [
        {
          "internalType": "string",
          "name": "",
          "type": "string"
        }
      ],
      "stateMutability": "view",
      "type": "function"
    },
    {
      "inputs": [
        {
          "internalType": "uint256",
          "name": "_totalSupply",
          "type": "uint256"
        },
        {
          "internalType": "uint256",
          "name": "_tokenId",
          "type": "uint256"
        },
        {
          "internalType": "address",
          "name": "_user",
          "type": "address"
        },
        {
          "internalType": "uint256",
          "name": "_dropPrice",
          "type": "uint256"
        }
      ],
      "name": "mintToken",
      "outputs": [],
      "stateMutability": "nonpayable",
      "type": "function"
    },
    {
      "inputs": [
        {
          "internalType": "enum HinataMarketplace.DROP_TYPE",
          "name": "_dropType",
          "type": "uint8"
        },
        {
          "internalType": "uint256",
          "name": "_price",
          "type": "uint256"
        },
        {
          "internalType": "string",
          "name": "_collectionName",
          "type": "string"
        }
      ],
      "name": "createDrop",
      "outputs": [],
      "stateMutability": "nonpayable",
      "type": "function"
    },
    {
      "inputs": [
        {
          "internalType": "string",
          "name": "_collectionName",
          "type": "string"
        },
        {
          "internalType": "address",
          "name": "_user",
          "type": "address"
        },
        {
          "internalType": "uint256[]",
          "name": "_tokens",
          "type": "uint256[]"
        }
      ],
      "name": "createCollection",
      "outputs": [],
      "stateMutability": "nonpayable",
      "type": "function"
    },
    {
      "inputs": [
        {
          "internalType": "address",
          "name": "_user",
          "type": "address"
        }
      ],
      "name": "addallowedUserTokenCreation",
      "outputs": [],
      "stateMutability": "nonpayable",
      "type": "function"
    },
    {
      "inputs": [
        {
          "internalType": "address",
          "name": "_user",
          "type": "address"
        }
      ],
      "name": "addallowedUserDropCreation",
      "outputs": [],
      "stateMutability": "nonpayable",
      "type": "function"
    },
    {
      "inputs": [
        {
          "internalType": "address",
          "name": "_user",
          "type": "address"
        }
      ],
      "name": "addallowedUserCollectionCreation",
      "outputs": [],
      "stateMutability": "nonpayable",
      "type": "function"
    }
  ],
  "bytecode": "0x608060405260016004553480156200001657600080fd5b506040518060600160405280602c815260200162004276602c91396200004281620000fa60201b60201c565b506000620000556200011660201b60201c565b905080600360006101000a81548173ffffffffffffffffffffffffffffffffffffffff021916908373ffffffffffffffffffffffffffffffffffffffff1602179055508073ffffffffffffffffffffffffffffffffffffffff16600073ffffffffffffffffffffffffffffffffffffffff167f8be0079c531659141344cd1fd0a4f28419497f9722a3daafe3b4186f6b6457e060405160405180910390a35062000233565b8060029080519060200190620001129291906200011e565b5050565b600033905090565b8280546200012c90620001ce565b90600052602060002090601f0160209004810192826200015057600085556200019c565b82601f106200016b57805160ff19168380011785556200019c565b828001600101855582156200019c579182015b828111156200019b5782518255916020019190600101906200017e565b5b509050620001ab9190620001af565b5090565b5b80821115620001ca576000816000905550600101620001b0565b5090565b60006002820490506001821680620001e757607f821691505b60208210811415620001fe57620001fd62000204565b5b50919050565b7f4e487b7100000000000000000000000000000000000000000000000000000000600052602260045260246000fd5b61403380620002436000396000f3fe608060405234801561001057600080fd5b506004361061010a5760003560e01c8063715018a6116100a2578063ba1f5fb411610071578063ba1f5fb41461029f578063e985e9c5146102bb578063f242432a146102eb578063f2fde38b14610307578063f78f9ed5146103235761010a565b8063715018a61461023f5780638da5cb5b1461024957806391172a4f14610267578063a22cb465146102835761010a565b806334a5d240116100de57806334a5d240146101bb5780633e47d90e146101d75780634e1273f4146101f357806367f9a335146102235761010a565b8062fdd58e1461010f57806301ffc9a71461013f5780630e89341c1461016f5780632eb2c2d61461019f575b600080fd5b61012960048036038101906101249190612abb565b61033f565b6040516101369190613acc565b60405180910390f35b61015960048036038101906101549190612b63565b610408565b60405161016691906137cf565b60405180910390f35b61018960048036038101906101849190612c9b565b6104ea565b60405161019691906137ea565b60405180910390f35b6101b960048036038101906101b49190612931565b61057e565b005b6101d560048036038101906101d09190612bb5565b610974565b005b6101f160048036038101906101ec9190612cc4565b610c08565b005b61020d60048036038101906102089190612af7565b610d7c565b60405161021a9190613776565b60405180910390f35b61023d60048036038101906102389190612c1c565b610f2d565b005b61024761138a565b005b6102516114c7565b60405161025e9190613699565b60405180910390f35b610281600480360381019061027c91906128cc565b6114f1565b005b61029d60048036038101906102989190612a7f565b6115c8565b005b6102b960048036038101906102b491906128cc565b611749565b005b6102d560048036038101906102d091906128f5565b611820565b6040516102e291906137cf565b60405180910390f35b610305600480360381019061030091906129f0565b6118b4565b005b610321600480360381019061031c91906128cc565b611bcc565b005b61033d600480360381019061033891906128cc565b611d78565b005b60008073ffffffffffffffffffffffffffffffffffffffff168373ffffffffffffffffffffffffffffffffffffffff1614156103b0576040517f08c379a00000000000000000000000000000000000000000000000000000000081526004016103a79061386c565b60405180910390fd5b60008083815260200190815260200160002060008473ffffffffffffffffffffffffffffffffffffffff1673ffffffffffffffffffffffffffffffffffffffff16815260200190815260200160002054905092915050565b60007fd9b67a26000000000000000000000000000000000000000000000000000000007bffffffffffffffffffffffffffffffffffffffffffffffffffffffff1916827bffffffffffffffffffffffffffffffffffffffffffffffffffffffff191614806104d357507f0e89341c000000000000000000000000000000000000000000000000000000007bffffffffffffffffffffffffffffffffffffffffffffffffffffffff1916827bffffffffffffffffffffffffffffffffffffffffffffffffffffffff1916145b806104e357506104e282611e4f565b5b9050919050565b6060600280546104f990613db5565b80601f016020809104026020016040519081016040528092919081815260200182805461052590613db5565b80156105725780601f1061054757610100808354040283529160200191610572565b820191906000526020600020905b81548152906001019060200180831161055557829003601f168201915b50505050509050919050565b81518351146105c2576040517f08c379a00000000000000000000000000000000000000000000000000000000081526004016105b990613a2c565b60405180910390fd5b600073ffffffffffffffffffffffffffffffffffffffff168473ffffffffffffffffffffffffffffffffffffffff161415610632576040517f08c379a00000000000000000000000000000000000000000000000000000000081526004016106299061390c565b60405180910390fd5b61063a611eb9565b73ffffffffffffffffffffffffffffffffffffffff168573ffffffffffffffffffffffffffffffffffffffff161480610680575061067f8561067a611eb9565b611820565b5b6106bf576040517f08c379a00000000000000000000000000000000000000000000000000000000081526004016106b69061392c565b60405180910390fd5b60006106c9611eb9565b90506106d9818787878787611ec1565b60005b84518110156108df576000858281518110610720577f4e487b7100000000000000000000000000000000000000000000000000000000600052603260045260246000fd5b602002602001015190506000858381518110610765577f4e487b7100000000000000000000000000000000000000000000000000000000600052603260045260246000fd5b60200260200101519050600080600084815260200190815260200160002060008b73ffffffffffffffffffffffffffffffffffffffff1673ffffffffffffffffffffffffffffffffffffffff16815260200190815260200160002054905081811015610806576040517f08c379a00000000000000000000000000000000000000000000000000000000081526004016107fd9061394c565b60405180910390fd5b81816108129190613ccb565b60008085815260200190815260200160002060008c73ffffffffffffffffffffffffffffffffffffffff1673ffffffffffffffffffffffffffffffffffffffff168152602001908152602001600020819055508160008085815260200190815260200160002060008b73ffffffffffffffffffffffffffffffffffffffff1673ffffffffffffffffffffffffffffffffffffffff16815260200190815260200160002060008282546108c49190613c75565b92505081905550505050806108d890613de7565b90506106dc565b508473ffffffffffffffffffffffffffffffffffffffff168673ffffffffffffffffffffffffffffffffffffffff168273ffffffffffffffffffffffffffffffffffffffff167f4a39dc06d4c0dbc64b70af90fd698a233a518aa5d07e595d983b8c0526c8f7fb8787604051610956929190613798565b60405180910390a461096c818787878787611ec9565b505050505050565b6001151560096000610984611eb9565b73ffffffffffffffffffffffffffffffffffffffff1673ffffffffffffffffffffffffffffffffffffffff16815260200190815260200160002060009054906101000a900460ff16151514610a0e576040517f08c379a0000000000000000000000000000000000000000000000000000000008152600401610a0590613a8c565b60405180910390fd5b6000600782604051610a209190613682565b90815260200160405180910390206001015414610a72576040517f08c379a0000000000000000000000000000000000000000000000000000000008152600401610a69906138cc565b60405180910390fd5b60006040518060800160405280856001811115610ab8577f4e487b7100000000000000000000000000000000000000000000000000000000600052602160045260246000fd5b815260200160006001811115610af7577f4e487b7100000000000000000000000000000000000000000000000000000000600052602160045260246000fd5b815260200184815260200183815250905060006004549050816005600083815260200190815260200160002060008201518160000160006101000a81548160ff02191690836001811115610b74577f4e487b7100000000000000000000000000000000000000000000000000000000600052602160045260246000fd5b021790555060208201518160000160016101000a81548160ff02191690836001811115610bca577f4e487b7100000000000000000000000000000000000000000000000000000000600052602160045260246000fd5b0217905550604082015181600101556060820151816002019080519060200190610bf592919061255e565b50905050610c01612099565b5050505050565b6001151560086000610c18611eb9565b73ffffffffffffffffffffffffffffffffffffffff1673ffffffffffffffffffffffffffffffffffffffff16815260200190815260200160002060009054906101000a900460ff16151514610ca2576040517f08c379a0000000000000000000000000000000000000000000000000000000008152600401610c99906139cc565b60405180910390fd5b60008411610ce5576040517f08c379a0000000000000000000000000000000000000000000000000000000008152600401610cdc9061384c565b60405180910390fd5b6000600660008581526020019081526020016000206000015414610d3e576040517f08c379a0000000000000000000000000000000000000000000000000000000008152600401610d3590613a6c565b60405180910390fd5b610d466125e4565b8481600001818152505081816020018181525050610d75838587604051806020016040528060008152506120b3565b5050505050565b60608151835114610dc2576040517f08c379a0000000000000000000000000000000000000000000000000000000008152600401610db990613a0c565b60405180910390fd5b6000835167ffffffffffffffff811115610e05577f4e487b7100000000000000000000000000000000000000000000000000000000600052604160045260246000fd5b604051908082528060200260200182016040528015610e335781602001602082028036833780820191505090505b50905060005b8451811015610f2257610ecc858281518110610e7e577f4e487b7100000000000000000000000000000000000000000000000000000000600052603260045260246000fd5b6020026020010151858381518110610ebf577f4e487b7100000000000000000000000000000000000000000000000000000000600052603260045260246000fd5b602002602001015161033f565b828281518110610f05577f4e487b7100000000000000000000000000000000000000000000000000000000600052603260045260246000fd5b60200260200101818152505080610f1b90613de7565b9050610e39565b508091505092915050565b60011515600a6000610f3d611eb9565b73ffffffffffffffffffffffffffffffffffffffff1673ffffffffffffffffffffffffffffffffffffffff16815260200190815260200160002060009054906101000a900460ff16151514610fc7576040517f08c379a0000000000000000000000000000000000000000000000000000000008152600401610fbe906138ec565b60405180910390fd5b600073ffffffffffffffffffffffffffffffffffffffff16600784604051610fef9190613682565b908152602001604051809103902060000160009054906101000a900473ffffffffffffffffffffffffffffffffffffffff1673ffffffffffffffffffffffffffffffffffffffff1614611077576040517f08c379a000000000000000000000000000000000000000000000000000000000815260040161106e9061398c565b60405180910390fd5b61107f612605565b82816000019073ffffffffffffffffffffffffffffffffffffffff16908173ffffffffffffffffffffffffffffffffffffffff1681525050806007856040516110c89190613682565b908152602001604051809103902060008201518160000160006101000a81548173ffffffffffffffffffffffffffffffffffffffff021916908373ffffffffffffffffffffffffffffffffffffffff1602179055506020820151816001015590505060005b825181101561138357600060066000858481518110611175577f4e487b7100000000000000000000000000000000000000000000000000000000600052603260045260246000fd5b6020026020010151815260200190815260200160002060000154116111cf576040517f08c379a00000000000000000000000000000000000000000000000000000000081526004016111c6906139ac565b60405180910390fd5b6112c66006600085848151811061120f577f4e487b7100000000000000000000000000000000000000000000000000000000600052603260045260246000fd5b60200260200101518152602001908152602001600020600201805461123390613db5565b80601f016020809104026020016040519081016040528092919081815260200182805461125f90613db5565b80156112ac5780601f10611281576101008083540402835291602001916112ac565b820191906000526020600020905b81548152906001019060200180831161128f57829003601f168201915b505050505060405180602001604052806000815250612249565b611305576040517f08c379a00000000000000000000000000000000000000000000000000000000081526004016112fc90613aac565b60405180910390fd5b8460066000858481518110611343577f4e487b7100000000000000000000000000000000000000000000000000000000600052603260045260246000fd5b60200260200101518152602001908152602001600020600201908051906020019061136f92919061255e565b50808061137b90613de7565b91505061112d565b5050505050565b611392611eb9565b73ffffffffffffffffffffffffffffffffffffffff166113b06114c7565b73ffffffffffffffffffffffffffffffffffffffff1614611406576040517f08c379a00000000000000000000000000000000000000000000000000000000081526004016113fd9061396c565b60405180910390fd5b600073ffffffffffffffffffffffffffffffffffffffff16600360009054906101000a900473ffffffffffffffffffffffffffffffffffffffff1673ffffffffffffffffffffffffffffffffffffffff167f8be0079c531659141344cd1fd0a4f28419497f9722a3daafe3b4186f6b6457e060405160405180910390a36000600360006101000a81548173ffffffffffffffffffffffffffffffffffffffff021916908373ffffffffffffffffffffffffffffffffffffffff160217905550565b6000600360009054906101000a900473ffffffffffffffffffffffffffffffffffffffff16905090565b6114f9611eb9565b73ffffffffffffffffffffffffffffffffffffffff166115176114c7565b73ffffffffffffffffffffffffffffffffffffffff161461156d576040517f08c379a00000000000000000000000000000000000000000000000000000000081526004016115649061396c565b60405180910390fd5b6001600860008373ffffffffffffffffffffffffffffffffffffffff1673ffffffffffffffffffffffffffffffffffffffff16815260200190815260200160002060006101000a81548160ff02191690831515021790555050565b8173ffffffffffffffffffffffffffffffffffffffff166115e7611eb9565b73ffffffffffffffffffffffffffffffffffffffff16141561163e576040517f08c379a0000000000000000000000000000000000000000000000000000000008152600401611635906139ec565b60405180910390fd5b806001600061164b611eb9565b73ffffffffffffffffffffffffffffffffffffffff1673ffffffffffffffffffffffffffffffffffffffff16815260200190815260200160002060008473ffffffffffffffffffffffffffffffffffffffff1673ffffffffffffffffffffffffffffffffffffffff16815260200190815260200160002060006101000a81548160ff0219169083151502179055508173ffffffffffffffffffffffffffffffffffffffff166116f8611eb9565b73ffffffffffffffffffffffffffffffffffffffff167f17307eab39ab6107e8899845ad3d59bd9653f200f220920489ca2b5937696c318360405161173d91906137cf565b60405180910390a35050565b611751611eb9565b73ffffffffffffffffffffffffffffffffffffffff1661176f6114c7565b73ffffffffffffffffffffffffffffffffffffffff16146117c5576040517f08c379a00000000000000000000000000000000000000000000000000000000081526004016117bc9061396c565b60405180910390fd5b6001600a60008373ffffffffffffffffffffffffffffffffffffffff1673ffffffffffffffffffffffffffffffffffffffff16815260200190815260200160002060006101000a81548160ff02191690831515021790555050565b6000600160008473ffffffffffffffffffffffffffffffffffffffff1673ffffffffffffffffffffffffffffffffffffffff16815260200190815260200160002060008373ffffffffffffffffffffffffffffffffffffffff1673ffffffffffffffffffffffffffffffffffffffff16815260200190815260200160002060009054906101000a900460ff16905092915050565b600073ffffffffffffffffffffffffffffffffffffffff168473ffffffffffffffffffffffffffffffffffffffff161415611924576040517f08c379a000000000000000000000000000000000000000000000000000000000815260040161191b9061390c565b60405180910390fd5b61192c611eb9565b73ffffffffffffffffffffffffffffffffffffffff168573ffffffffffffffffffffffffffffffffffffffff16148061197257506119718561196c611eb9565b611820565b5b6119b1576040517f08c379a00000000000000000000000000000000000000000000000000000000081526004016119a8906138ac565b60405180910390fd5b60006119bb611eb9565b90506119db8187876119cc886122b5565b6119d5886122b5565b87611ec1565b600080600086815260200190815260200160002060008873ffffffffffffffffffffffffffffffffffffffff1673ffffffffffffffffffffffffffffffffffffffff16815260200190815260200160002054905083811015611a72576040517f08c379a0000000000000000000000000000000000000000000000000000000008152600401611a699061394c565b60405180910390fd5b8381611a7e9190613ccb565b60008087815260200190815260200160002060008973ffffffffffffffffffffffffffffffffffffffff1673ffffffffffffffffffffffffffffffffffffffff168152602001908152602001600020819055508360008087815260200190815260200160002060008873ffffffffffffffffffffffffffffffffffffffff1673ffffffffffffffffffffffffffffffffffffffff1681526020019081526020016000206000828254611b309190613c75565b925050819055508573ffffffffffffffffffffffffffffffffffffffff168773ffffffffffffffffffffffffffffffffffffffff168373ffffffffffffffffffffffffffffffffffffffff167fc3d58168c5ae7397731d063d5bbf3d657854427343f4c083240f7aacaa2d0f628888604051611bad929190613ae7565b60405180910390a4611bc382888888888861237b565b50505050505050565b611bd4611eb9565b73ffffffffffffffffffffffffffffffffffffffff16611bf26114c7565b73ffffffffffffffffffffffffffffffffffffffff1614611c48576040517f08c379a0000000000000000000000000000000000000000000000000000000008152600401611c3f9061396c565b60405180910390fd5b600073ffffffffffffffffffffffffffffffffffffffff168173ffffffffffffffffffffffffffffffffffffffff161415611cb8576040517f08c379a0000000000000000000000000000000000000000000000000000000008152600401611caf9061388c565b60405180910390fd5b8073ffffffffffffffffffffffffffffffffffffffff16600360009054906101000a900473ffffffffffffffffffffffffffffffffffffffff1673ffffffffffffffffffffffffffffffffffffffff167f8be0079c531659141344cd1fd0a4f28419497f9722a3daafe3b4186f6b6457e060405160405180910390a380600360006101000a81548173ffffffffffffffffffffffffffffffffffffffff021916908373ffffffffffffffffffffffffffffffffffffffff16021790555050565b611d80611eb9565b73ffffffffffffffffffffffffffffffffffffffff16611d9e6114c7565b73ffffffffffffffffffffffffffffffffffffffff1614611df4576040517f08c379a0000000000000000000000000000000000000000000000000000000008152600401611deb9061396c565b60405180910390fd5b6001600960008373ffffffffffffffffffffffffffffffffffffffff1673ffffffffffffffffffffffffffffffffffffffff16815260200190815260200160002060006101000a81548160ff02191690831515021790555050565b60007f01ffc9a7000000000000000000000000000000000000000000000000000000007bffffffffffffffffffffffffffffffffffffffffffffffffffffffff1916827bffffffffffffffffffffffffffffffffffffffffffffffffffffffff1916149050919050565b600033905090565b505050505050565b611ee88473ffffffffffffffffffffffffffffffffffffffff1661254b565b15612091578373ffffffffffffffffffffffffffffffffffffffff1663bc197c8187878686866040518663ffffffff1660e01b8152600401611f2e9594939291906136b4565b602060405180830381600087803b158015611f4857600080fd5b505af1925050508015611f7957506040513d601f19601f82011682018060405250810190611f769190612b8c565b60015b61200857611f85613edb565b80611f905750611fcd565b806040517f08c379a0000000000000000000000000000000000000000000000000000000008152600401611fc491906137ea565b60405180910390fd5b6040517f08c379a0000000000000000000000000000000000000000000000000000000008152600401611fff9061380c565b60405180910390fd5b63bc197c8160e01b7bffffffffffffffffffffffffffffffffffffffffffffffffffffffff1916817bffffffffffffffffffffffffffffffffffffffffffffffffffffffff19161461208f576040517f08c379a00000000000000000000000000000000000000000000000000000000081526004016120869061382c565b60405180910390fd5b505b505050505050565b600460008154809291906120ac90613de7565b9190505550565b600073ffffffffffffffffffffffffffffffffffffffff168473ffffffffffffffffffffffffffffffffffffffff161415612123576040517f08c379a000000000000000000000000000000000000000000000000000000000815260040161211a90613a4c565b60405180910390fd5b600061212d611eb9565b905061214e8160008761213f886122b5565b612148886122b5565b87611ec1565b8260008086815260200190815260200160002060008773ffffffffffffffffffffffffffffffffffffffff1673ffffffffffffffffffffffffffffffffffffffff16815260200190815260200160002060008282546121ad9190613c75565b925050819055508473ffffffffffffffffffffffffffffffffffffffff16600073ffffffffffffffffffffffffffffffffffffffff168273ffffffffffffffffffffffffffffffffffffffff167fc3d58168c5ae7397731d063d5bbf3d657854427343f4c083240f7aacaa2d0f62878760405161222b929190613ae7565b60405180910390a46122428160008787878761237b565b5050505050565b6000815183511461225d57600090506122af565b8160405160200161226e9190613682565b60405160208183030381529060405280519060200120836040516020016122959190613682565b604051602081830303815290604052805190602001201490505b92915050565b60606000600167ffffffffffffffff8111156122fa577f4e487b7100000000000000000000000000000000000000000000000000000000600052604160045260246000fd5b6040519080825280602002602001820160405280156123285781602001602082028036833780820191505090505b5090508281600081518110612366577f4e487b7100000000000000000000000000000000000000000000000000000000600052603260045260246000fd5b60200260200101818152505080915050919050565b61239a8473ffffffffffffffffffffffffffffffffffffffff1661254b565b15612543578373ffffffffffffffffffffffffffffffffffffffff1663f23a6e6187878686866040518663ffffffff1660e01b81526004016123e095949392919061371c565b602060405180830381600087803b1580156123fa57600080fd5b505af192505050801561242b57506040513d601f19601f820116820180604052508101906124289190612b8c565b60015b6124ba57612437613edb565b80612442575061247f565b806040517f08c379a000000000000000000000000000000000000000000000000000000000815260040161247691906137ea565b60405180910390fd5b6040517f08c379a00000000000000000000000000000000000000000000000000000000081526004016124b19061380c565b60405180910390fd5b63f23a6e6160e01b7bffffffffffffffffffffffffffffffffffffffffffffffffffffffff1916817bffffffffffffffffffffffffffffffffffffffffffffffffffffffff191614612541576040517f08c379a00000000000000000000000000000000000000000000000000000000081526004016125389061382c565b60405180910390fd5b505b505050505050565b600080823b905060008111915050919050565b82805461256a90613db5565b90600052602060002090601f01602090048101928261258c57600085556125d3565b82601f106125a557805160ff19168380011785556125d3565b828001600101855582156125d3579182015b828111156125d25782518255916020019190600101906125b7565b5b5090506125e09190612635565b5090565b60405180606001604052806000815260200160008152602001606081525090565b6040518060400160405280600073ffffffffffffffffffffffffffffffffffffffff168152602001600081525090565b5b8082111561264e576000816000905550600101612636565b5090565b600061266561266084613b41565b613b10565b9050808382526020820190508285602086028201111561268457600080fd5b60005b858110156126b4578161269a88826127a6565b845260208401935060208301925050600181019050612687565b5050509392505050565b60006126d16126cc84613b6d565b613b10565b905080838252602082019050828560208602820111156126f057600080fd5b60005b85811015612720578161270688826128b7565b8452602084019350602083019250506001810190506126f3565b5050509392505050565b600061273d61273884613b99565b613b10565b90508281526020810184848401111561275557600080fd5b612760848285613d73565b509392505050565b600061277b61277684613bc9565b613b10565b90508281526020810184848401111561279357600080fd5b61279e848285613d73565b509392505050565b6000813590506127b581613f91565b92915050565b600082601f8301126127cc57600080fd5b81356127dc848260208601612652565b91505092915050565b600082601f8301126127f657600080fd5b81356128068482602086016126be565b91505092915050565b60008135905061281e81613fa8565b92915050565b60008135905061283381613fbf565b92915050565b60008151905061284881613fbf565b92915050565b600082601f83011261285f57600080fd5b813561286f84826020860161272a565b91505092915050565b60008135905061288781613fd6565b92915050565b600082601f83011261289e57600080fd5b81356128ae848260208601612768565b91505092915050565b6000813590506128c681613fe6565b92915050565b6000602082840312156128de57600080fd5b60006128ec848285016127a6565b91505092915050565b6000806040838503121561290857600080fd5b6000612916858286016127a6565b9250506020612927858286016127a6565b9150509250929050565b600080600080600060a0868803121561294957600080fd5b6000612957888289016127a6565b9550506020612968888289016127a6565b945050604086013567ffffffffffffffff81111561298557600080fd5b612991888289016127e5565b935050606086013567ffffffffffffffff8111156129ae57600080fd5b6129ba888289016127e5565b925050608086013567ffffffffffffffff8111156129d757600080fd5b6129e38882890161284e565b9150509295509295909350565b600080600080600060a08688031215612a0857600080fd5b6000612a16888289016127a6565b9550506020612a27888289016127a6565b9450506040612a38888289016128b7565b9350506060612a49888289016128b7565b925050608086013567ffffffffffffffff811115612a6657600080fd5b612a728882890161284e565b9150509295509295909350565b60008060408385031215612a9257600080fd5b6000612aa0858286016127a6565b9250506020612ab18582860161280f565b9150509250929050565b60008060408385031215612ace57600080fd5b6000612adc858286016127a6565b9250506020612aed858286016128b7565b9150509250929050565b60008060408385031215612b0a57600080fd5b600083013567ffffffffffffffff811115612b2457600080fd5b612b30858286016127bb565b925050602083013567ffffffffffffffff811115612b4d57600080fd5b612b59858286016127e5565b9150509250929050565b600060208284031215612b7557600080fd5b6000612b8384828501612824565b91505092915050565b600060208284031215612b9e57600080fd5b6000612bac84828501612839565b91505092915050565b600080600060608486031215612bca57600080fd5b6000612bd886828701612878565b9350506020612be9868287016128b7565b925050604084013567ffffffffffffffff811115612c0657600080fd5b612c128682870161288d565b9150509250925092565b600080600060608486031215612c3157600080fd5b600084013567ffffffffffffffff811115612c4b57600080fd5b612c578682870161288d565b9350506020612c68868287016127a6565b925050604084013567ffffffffffffffff811115612c8557600080fd5b612c91868287016127e5565b9150509250925092565b600060208284031215612cad57600080fd5b6000612cbb848285016128b7565b91505092915050565b60008060008060808587031215612cda57600080fd5b6000612ce8878288016128b7565b9450506020612cf9878288016128b7565b9350506040612d0a878288016127a6565b9250506060612d1b878288016128b7565b91505092959194509250565b6000612d338383613664565b60208301905092915050565b612d4881613cff565b82525050565b6000612d5982613c09565b612d638185613c37565b9350612d6e83613bf9565b8060005b83811015612d9f578151612d868882612d27565b9750612d9183613c2a565b925050600181019050612d72565b5085935050505092915050565b612db581613d11565b82525050565b6000612dc682613c14565b612dd08185613c48565b9350612de0818560208601613d82565b612de981613ebd565b840191505092915050565b6000612dff82613c1f565b612e098185613c59565b9350612e19818560208601613d82565b612e2281613ebd565b840191505092915050565b6000612e3882613c1f565b612e428185613c6a565b9350612e52818560208601613d82565b80840191505092915050565b6000612e6b603483613c59565b91507f455243313135353a207472616e7366657220746f206e6f6e204552433131353560008301527f526563656976657220696d706c656d656e7465720000000000000000000000006020830152604082019050919050565b6000612ed1602883613c59565b91507f455243313135353a204552433131353552656365697665722072656a6563746560008301527f6420746f6b656e730000000000000000000000000000000000000000000000006020830152604082019050919050565b6000612f37602383613c59565b91507f546f74616c20737570706c79206d75737420626520677265617465722074686160008301527f6e203000000000000000000000000000000000000000000000000000000000006020830152604082019050919050565b6000612f9d602b83613c59565b91507f455243313135353a2062616c616e636520717565727920666f7220746865207a60008301527f65726f20616464726573730000000000000000000000000000000000000000006020830152604082019050919050565b6000613003602683613c59565b91507f4f776e61626c653a206e6577206f776e657220697320746865207a65726f206160008301527f64647265737300000000000000000000000000000000000000000000000000006020830152604082019050919050565b6000613069602983613c59565b91507f455243313135353a2063616c6c6572206973206e6f74206f776e6572206e6f7260008301527f20617070726f76656400000000000000000000000000000000000000000000006020830152604082019050919050565b60006130cf602e83613c59565b91507f54686520636f6c6c656374696f6e20697320616c72656164792075736564206260008301527f7920616e6f746865722064726f700000000000000000000000000000000000006020830152604082019050919050565b6000613135602683613c59565b91507f55736572206e6f7420616c6c6f77656420746f2063726561746520636f6c6c6560008301527f6374696f6e7300000000000000000000000000000000000000000000000000006020830152604082019050919050565b600061319b602583613c59565b91507f455243313135353a207472616e7366657220746f20746865207a65726f20616460008301527f64726573730000000000000000000000000000000000000000000000000000006020830152604082019050919050565b6000613201603283613c59565b91507f455243313135353a207472616e736665722063616c6c6572206973206e6f742060008301527f6f776e6572206e6f7220617070726f76656400000000000000000000000000006020830152604082019050919050565b6000613267602a83613c59565b91507f455243313135353a20696e73756666696369656e742062616c616e636520666f60008301527f72207472616e73666572000000000000000000000000000000000000000000006020830152604082019050919050565b60006132cd602083613c59565b91507f4f776e61626c653a2063616c6c6572206973206e6f7420746865206f776e65726000830152602082019050919050565b600061330d602583613c59565b91507f54686520636f6c6c656374696f6e206e616d6520697320616c7265616479206560008301527f78697374730000000000000000000000000000000000000000000000000000006020830152604082019050919050565b6000613373601583613c59565b91507f4120746f6b656e206973206e6f74206d696e74656400000000000000000000006000830152602082019050919050565b60006133b3601f83613c59565b91507f55736572206e6f7420616c6c6f77656420746f206d696e7420746f6b656e73006000830152602082019050919050565b60006133f3602983613c59565b91507f455243313135353a2073657474696e6720617070726f76616c2073746174757360008301527f20666f722073656c6600000000000000000000000000000000000000000000006020830152604082019050919050565b6000613459602983613c59565b91507f455243313135353a206163636f756e747320616e6420696473206c656e67746860008301527f206d69736d6174636800000000000000000000000000000000000000000000006020830152604082019050919050565b60006134bf602883613c59565b91507f455243313135353a2069647320616e6420616d6f756e7473206c656e6774682060008301527f6d69736d617463680000000000000000000000000000000000000000000000006020830152604082019050919050565b6000613525602183613c59565b91507f455243313135353a206d696e7420746f20746865207a65726f2061646472657360008301527f73000000000000000000000000000000000000000000000000000000000000006020830152604082019050919050565b600061358b601783613c59565b91507f496420746f6b656e20616c7265616479206578697374730000000000000000006000830152602082019050919050565b60006135cb602083613c59565b91507f55736572206e6f7420616c6c6f77656420746f206372656174652064726f70736000830152602082019050919050565b600061360b602e83613c59565b91507f4120746f6b656e20697320616c726561647920616464656420746f20616e6f7460008301527f68657220636f6c6c656374696f6e0000000000000000000000000000000000006020830152604082019050919050565b61366d81613d69565b82525050565b61367c81613d69565b82525050565b600061368e8284612e2d565b915081905092915050565b60006020820190506136ae6000830184612d3f565b92915050565b600060a0820190506136c96000830188612d3f565b6136d66020830187612d3f565b81810360408301526136e88186612d4e565b905081810360608301526136fc8185612d4e565b905081810360808301526137108184612dbb565b90509695505050505050565b600060a0820190506137316000830188612d3f565b61373e6020830187612d3f565b61374b6040830186613673565b6137586060830185613673565b818103608083015261376a8184612dbb565b90509695505050505050565b600060208201905081810360008301526137908184612d4e565b905092915050565b600060408201905081810360008301526137b28185612d4e565b905081810360208301526137c68184612d4e565b90509392505050565b60006020820190506137e46000830184612dac565b92915050565b600060208201905081810360008301526138048184612df4565b905092915050565b6000602082019050818103600083015261382581612e5e565b9050919050565b6000602082019050818103600083015261384581612ec4565b9050919050565b6000602082019050818103600083015261386581612f2a565b9050919050565b6000602082019050818103600083015261388581612f90565b9050919050565b600060208201905081810360008301526138a581612ff6565b9050919050565b600060208201905081810360008301526138c58161305c565b9050919050565b600060208201905081810360008301526138e5816130c2565b9050919050565b6000602082019050818103600083015261390581613128565b9050919050565b600060208201905081810360008301526139258161318e565b9050919050565b60006020820190508181036000830152613945816131f4565b9050919050565b600060208201905081810360008301526139658161325a565b9050919050565b60006020820190508181036000830152613985816132c0565b9050919050565b600060208201905081810360008301526139a581613300565b9050919050565b600060208201905081810360008301526139c581613366565b9050919050565b600060208201905081810360008301526139e5816133a6565b9050919050565b60006020820190508181036000830152613a05816133e6565b9050919050565b60006020820190508181036000830152613a258161344c565b9050919050565b60006020820190508181036000830152613a45816134b2565b9050919050565b60006020820190508181036000830152613a6581613518565b9050919050565b60006020820190508181036000830152613a858161357e565b9050919050565b60006020820190508181036000830152613aa5816135be565b9050919050565b60006020820190508181036000830152613ac5816135fe565b9050919050565b6000602082019050613ae16000830184613673565b92915050565b6000604082019050613afc6000830185613673565b613b096020830184613673565b9392505050565b6000604051905081810181811067ffffffffffffffff82111715613b3757613b36613e8e565b5b8060405250919050565b600067ffffffffffffffff821115613b5c57613b5b613e8e565b5b602082029050602081019050919050565b600067ffffffffffffffff821115613b8857613b87613e8e565b5b602082029050602081019050919050565b600067ffffffffffffffff821115613bb457613bb3613e8e565b5b601f19601f8301169050602081019050919050565b600067ffffffffffffffff821115613be457613be3613e8e565b5b601f19601f8301169050602081019050919050565b6000819050602082019050919050565b600081519050919050565b600081519050919050565b600081519050919050565b6000602082019050919050565b600082825260208201905092915050565b600082825260208201905092915050565b600082825260208201905092915050565b600081905092915050565b6000613c8082613d69565b9150613c8b83613d69565b9250827fffffffffffffffffffffffffffffffffffffffffffffffffffffffffffffffff03821115613cc057613cbf613e30565b5b828201905092915050565b6000613cd682613d69565b9150613ce183613d69565b925082821015613cf457613cf3613e30565b5b828203905092915050565b6000613d0a82613d49565b9050919050565b60008115159050919050565b60007fffffffff0000000000000000000000000000000000000000000000000000000082169050919050565b600073ffffffffffffffffffffffffffffffffffffffff82169050919050565b6000819050919050565b82818337600083830152505050565b60005b83811015613da0578082015181840152602081019050613d85565b83811115613daf576000848401525b50505050565b60006002820490506001821680613dcd57607f821691505b60208210811415613de157613de0613e5f565b5b50919050565b6000613df282613d69565b91507fffffffffffffffffffffffffffffffffffffffffffffffffffffffffffffffff821415613e2557613e24613e30565b5b600182019050919050565b7f4e487b7100000000000000000000000000000000000000000000000000000000600052601160045260246000fd5b7f4e487b7100000000000000000000000000000000000000000000000000000000600052602260045260246000fd5b7f4e487b7100000000000000000000000000000000000000000000000000000000600052604160045260246000fd5b6000601f19601f8301169050919050565b60008160e01c9050919050565b600060443d1015613eeb57613f8e565b60046000803e613efc600051613ece565b6308c379a08114613f0d5750613f8e565b60405160043d036004823e80513d602482011167ffffffffffffffff82111715613f3957505050613f8e565b808201805167ffffffffffffffff811115613f58575050505050613f8e565b8060208301013d8501811115613f7357505050505050613f8e565b613f7c82613ebd565b60208401016040528296505050505050505b90565b613f9a81613cff565b8114613fa557600080fd5b50565b613fb181613d11565b8114613fbc57600080fd5b50565b613fc881613d1d565b8114613fd357600080fd5b50565b60028110613fe357600080fd5b50565b613fef81613d69565b8114613ffa57600080fd5b5056fea2646970667358221220b7de07140ae572128d94dc6491993965619be3c24d69ac9443a28d910cf6068b64736f6c6343000800003368747470733a2f2f48696e6174614d61726b6574706c6163652f6170692f6974656d2f7b69647d2e6a736f6e",
  "immutableReferences": {},
  "source": "// SPDX-License-Identifier: MIT\npragma solidity ^0.8.0;\n\nimport \"@openzeppelin/contracts/token/ERC1155/ERC1155.sol\";\nimport \"@openzeppelin/contracts/access/Ownable.sol\";\n\ncontract HinataMarketplace is ERC1155, Ownable{  \n\n    enum DROP_TYPE { \n        UNIQUE_PRODUCT_Fixed_PRICE_DROP,\n        INVENTORIED_PRODUCT_FIXED_PRICE_DROP\n    }\n\n    enum DROP_STATE{\n        OPENED,\n        CLOSED\n    }\n\n    struct Drop {\n        DROP_TYPE dropType;\n        DROP_STATE dropState;\n        uint256 price;\n        string collectionName;\n    }\n\n    uint256 private nextDropID = 1;\n\n    mapping(uint256 => Drop) drops;\n\n    struct TokenDetail{\n        uint256 totalSupply;\n        uint256 dropPrice;\n        string collectionName;\n    }\n\n    mapping(uint256 => TokenDetail) tokenDetails;\n\n    struct Collection {\n        address user;\n        uint256 dropIndex;\n    }\n                    \n    mapping(string => Collection ) collections;\n    mapping(address => bool) allowedUsersTokenCreation; \n    mapping(address => bool) allowedUsersDropCreation; \n    mapping(address => bool) allowedUsersCollectionCreation; \n    \n\n    constructor() public ERC1155(\"https://HinataMarketplace/api/item/{id}.json\") {\n    }\n\n    function mintToken(uint256 _totalSupply, uint256 _tokenId, address _user, uint256 _dropPrice) external {\n        require(allowedUsersTokenCreation[_msgSender()] == true, \"User not allowed to mint tokens\");\n        require(_totalSupply > 0, \"Total supply must be greater than 0\");\n        require(tokenDetails[_tokenId].totalSupply == 0, \"Id token already exists\");\n        TokenDetail memory tokenDetail;\n        tokenDetail.totalSupply = _totalSupply;\n        tokenDetail.dropPrice = _dropPrice;\n        _mint(_user, _tokenId , _totalSupply, \"\");\n    }\n\n    function createDrop(DROP_TYPE _dropType, uint256 _price, string memory _collectionName) external {\n        require(allowedUsersDropCreation[_msgSender()] == true, \"User not allowed to create drops\");\n        require(collections[_collectionName].dropIndex == 0, \"The collection is already used by another drop\");\n        Drop memory drop = Drop(_dropType, DROP_STATE.OPENED, _price, _collectionName);\n        uint256 dropId = nextDropID;\n        drops[dropId] = drop;\n        _incrementDropId();    \n    }\n\n    function createCollection(string memory _collectionName, address _user, uint256[] memory _tokens) external{\n        require(allowedUsersCollectionCreation[_msgSender()] == true, \"User not allowed to create collections\");\n        require(collections[_collectionName].user == address(0), \"The collection name is already exists\");\n        Collection memory collection;\n        collection.user = _user;\n        collections[_collectionName] = collection;\n        for(uint256 i=0; i<_tokens.length; i++){\n            require(tokenDetails[_tokens[i]].totalSupply > 0, \"A token is not minted\");\n            require(compareStrings(tokenDetails[_tokens[i]].collectionName, \"\"), \"A token is already added to another collection\");\n            tokenDetails[_tokens[i]].collectionName = _collectionName;\n        }\n    }\n\n    function addallowedUserTokenCreation(address _user) external onlyOwner {\n        allowedUsersTokenCreation[_user] = true;\n    }\n\n    function addallowedUserDropCreation(address _user) external onlyOwner {\n        allowedUsersDropCreation[_user] = true;\n    }\n\n    function addallowedUserCollectionCreation(address _user) external onlyOwner {\n        allowedUsersCollectionCreation[_user] = true;\n    }\n\n    function _incrementDropId() internal  {\n        nextDropID++;\n    }\n\n    function compareStrings(string memory s1, string memory s2) internal pure returns (bool) {\n        if(bytes(s1).length != bytes(s2).length) {\n            return false;\n        } else {\n            return keccak256(abi.encodePacked(s1)) == keccak256(abi.encodePacked(s2));\n        }\n    }\n\n}",
  "sourcePath": "/home/khemiriwalid/Bureau/ethereum/projects/Hinata Marketplace/contracts/HinataMarketplace.sol",
  "compiler": {
    "name": "solc",
    "version": "0.8.0+commit.c7dfd78e.Emscripten.clang"
  },
  "schemaVersion": "3.4.1",
  "updatedAt": "2021-06-06T16:34:08.393Z",
  "devdoc": {
    "kind": "dev",
    "methods": {
      "balanceOf(address,uint256)": {
        "details": "See {IERC1155-balanceOf}. Requirements: - `account` cannot be the zero address."
      },
      "balanceOfBatch(address[],uint256[])": {
        "details": "See {IERC1155-balanceOfBatch}. Requirements: - `accounts` and `ids` must have the same length."
      },
      "isApprovedForAll(address,address)": {
        "details": "See {IERC1155-isApprovedForAll}."
      },
      "owner()": {
        "details": "Returns the address of the current owner."
      },
      "renounceOwnership()": {
        "details": "Leaves the contract without owner. It will not be possible to call `onlyOwner` functions anymore. Can only be called by the current owner. NOTE: Renouncing ownership will leave the contract without an owner, thereby removing any functionality that is only available to the owner."
      },
      "safeBatchTransferFrom(address,address,uint256[],uint256[],bytes)": {
        "details": "See {IERC1155-safeBatchTransferFrom}."
      },
      "safeTransferFrom(address,address,uint256,uint256,bytes)": {
        "details": "See {IERC1155-safeTransferFrom}."
      },
      "setApprovalForAll(address,bool)": {
        "details": "See {IERC1155-setApprovalForAll}."
      },
      "supportsInterface(bytes4)": {
        "details": "See {IERC165-supportsInterface}."
      },
      "transferOwnership(address)": {
        "details": "Transfers ownership of the contract to a new account (`newOwner`). Can only be called by the current owner."
      },
      "uri(uint256)": {
        "details": "See {IERC1155MetadataURI-uri}. This implementation returns the same URI for *all* token types. It relies on the token type ID substitution mechanism https://eips.ethereum.org/EIPS/eip-1155#metadata[defined in the EIP]. Clients calling this function must replace the `\\{id\\}` substring with the actual token type ID."
      }
    },
    "version": 1
  },
  "userdoc": {
    "kind": "user",
    "methods": {},
    "version": 1
  }
}